{
  "_format": "hh-sol-artifact-1",
  "contractName": "IpfsNft",
  "sourceName": "contracts/IpfsNft.sol",
  "abi": [
    {
      "inputs": [],
      "stateMutability": "nonpayable",
      "type": "constructor"
    },
    {
      "anonymous": false,
      "inputs": [
        {
          "indexed": true,
          "internalType": "address",
          "name": "owner",
          "type": "address"
        },
        {
          "indexed": true,
          "internalType": "address",
          "name": "approved",
          "type": "address"
        },
        {
          "indexed": true,
          "internalType": "uint256",
          "name": "tokenId",
          "type": "uint256"
        }
      ],
      "name": "Approval",
      "type": "event"
    },
    {
      "anonymous": false,
      "inputs": [
        {
          "indexed": true,
          "internalType": "address",
          "name": "owner",
          "type": "address"
        },
        {
          "indexed": true,
          "internalType": "address",
          "name": "operator",
          "type": "address"
        },
        {
          "indexed": false,
          "internalType": "bool",
          "name": "approved",
          "type": "bool"
        }
      ],
      "name": "ApprovalForAll",
      "type": "event"
    },
    {
      "anonymous": false,
      "inputs": [
        {
          "indexed": true,
          "internalType": "address",
          "name": "from",
          "type": "address"
        },
        {
          "indexed": true,
          "internalType": "address",
          "name": "to",
          "type": "address"
        },
        {
          "indexed": true,
          "internalType": "uint256",
          "name": "tokenId",
          "type": "uint256"
        }
      ],
      "name": "Transfer",
      "type": "event"
    },
    {
      "inputs": [
        {
          "internalType": "address",
          "name": "to",
          "type": "address"
        },
        {
          "internalType": "uint256",
          "name": "tokenId",
          "type": "uint256"
        }
      ],
      "name": "approve",
      "outputs": [],
      "stateMutability": "nonpayable",
      "type": "function"
    },
    {
      "inputs": [
        {
          "internalType": "address",
          "name": "owner",
          "type": "address"
        },
        {
          "internalType": "string",
          "name": "tokenURI",
          "type": "string"
        }
      ],
      "name": "awardItem",
      "outputs": [],
      "stateMutability": "nonpayable",
      "type": "function"
    },
    {
      "inputs": [
        {
          "internalType": "address",
          "name": "owner",
          "type": "address"
        }
      ],
      "name": "balanceOf",
      "outputs": [
        {
          "internalType": "uint256",
          "name": "",
          "type": "uint256"
        }
      ],
      "stateMutability": "view",
      "type": "function"
    },
    {
      "inputs": [
        {
          "internalType": "uint256",
          "name": "tokenId",
          "type": "uint256"
        }
      ],
      "name": "getApproved",
      "outputs": [
        {
          "internalType": "address",
          "name": "",
          "type": "address"
        }
      ],
      "stateMutability": "view",
      "type": "function"
    },
    {
      "inputs": [
        {
          "internalType": "string",
          "name": "input",
          "type": "string"
        }
      ],
      "name": "getTokenId",
      "outputs": [
        {
          "internalType": "uint256",
          "name": "",
          "type": "uint256"
        }
      ],
      "stateMutability": "view",
      "type": "function"
    },
    {
      "inputs": [
        {
          "internalType": "address",
          "name": "owner",
          "type": "address"
        },
        {
          "internalType": "address",
          "name": "operator",
          "type": "address"
        }
      ],
      "name": "isApprovedForAll",
      "outputs": [
        {
          "internalType": "bool",
          "name": "",
          "type": "bool"
        }
      ],
      "stateMutability": "view",
      "type": "function"
    },
    {
      "inputs": [],
      "name": "name",
      "outputs": [
        {
          "internalType": "string",
          "name": "",
          "type": "string"
        }
      ],
      "stateMutability": "view",
      "type": "function"
    },
    {
      "inputs": [
        {
          "internalType": "uint256",
          "name": "tokenId",
          "type": "uint256"
        }
      ],
      "name": "ownerOf",
      "outputs": [
        {
          "internalType": "address",
          "name": "",
          "type": "address"
        }
      ],
      "stateMutability": "view",
      "type": "function"
    },
    {
      "inputs": [
        {
          "internalType": "address",
          "name": "from",
          "type": "address"
        },
        {
          "internalType": "address",
          "name": "to",
          "type": "address"
        },
        {
          "internalType": "uint256",
          "name": "tokenId",
          "type": "uint256"
        }
      ],
      "name": "safeTransferFrom",
      "outputs": [],
      "stateMutability": "nonpayable",
      "type": "function"
    },
    {
      "inputs": [
        {
          "internalType": "address",
          "name": "from",
          "type": "address"
        },
        {
          "internalType": "address",
          "name": "to",
          "type": "address"
        },
        {
          "internalType": "uint256",
          "name": "tokenId",
          "type": "uint256"
        },
        {
          "internalType": "bytes",
          "name": "_data",
          "type": "bytes"
        }
      ],
      "name": "safeTransferFrom",
      "outputs": [],
      "stateMutability": "nonpayable",
      "type": "function"
    },
    {
      "inputs": [
        {
          "internalType": "address",
          "name": "operator",
          "type": "address"
        },
        {
          "internalType": "bool",
          "name": "approved",
          "type": "bool"
        }
      ],
      "name": "setApprovalForAll",
      "outputs": [],
      "stateMutability": "nonpayable",
      "type": "function"
    },
    {
      "inputs": [
        {
          "internalType": "bytes4",
          "name": "interfaceId",
          "type": "bytes4"
        }
      ],
      "name": "supportsInterface",
      "outputs": [
        {
          "internalType": "bool",
          "name": "",
          "type": "bool"
        }
      ],
      "stateMutability": "view",
      "type": "function"
    },
    {
      "inputs": [],
      "name": "symbol",
      "outputs": [
        {
          "internalType": "string",
          "name": "",
          "type": "string"
        }
      ],
      "stateMutability": "view",
      "type": "function"
    },
    {
      "inputs": [
        {
          "internalType": "uint256",
          "name": "tokenId",
          "type": "uint256"
        }
      ],
      "name": "tokenURI",
      "outputs": [
        {
          "internalType": "string",
          "name": "",
          "type": "string"
        }
      ],
      "stateMutability": "view",
      "type": "function"
    },
    {
      "inputs": [
        {
          "internalType": "address",
          "name": "from",
          "type": "address"
        },
        {
          "internalType": "address",
          "name": "to",
          "type": "address"
        },
        {
          "internalType": "uint256",
          "name": "tokenId",
          "type": "uint256"
        }
      ],
      "name": "transferFrom",
      "outputs": [],
      "stateMutability": "nonpayable",
      "type": "function"
    }
  ],
  "bytecode": "0x60806040523480156200001157600080fd5b506040518060400160405280600781526020017f497066734e6674000000000000000000000000000000000000000000000000008152506040518060400160405280600781526020017f495046534e465400000000000000000000000000000000000000000000000000815250816000908051906020019062000096929190620000b8565b508060019080519060200190620000af929190620000b8565b505050620001cd565b828054620000c69062000197565b90600052602060002090601f016020900481019282620000ea576000855562000136565b82601f106200010557805160ff191683800117855562000136565b8280016001018555821562000136579182015b828111156200013557825182559160200191906001019062000118565b5b50905062000145919062000149565b5090565b5b80821115620001645760008160009055506001016200014a565b5090565b7f4e487b7100000000000000000000000000000000000000000000000000000000600052602260045260246000fd5b60006002820490506001821680620001b057607f821691505b60208210811415620001c757620001c662000168565b5b50919050565b612ce680620001dd6000396000f3fe608060405234801561001057600080fd5b50600436106100f55760003560e01c80636352211e11610097578063b88d4fde11610066578063b88d4fde14610296578063c87b56dd146102b2578063cf378343146102e2578063e985e9c5146102fe576100f5565b80636352211e146101fc57806370a082311461022c57806395d89b411461025c578063a22cb4651461027a576100f5565b8063095ea7b3116100d3578063095ea7b3146101785780631e7663bc1461019457806323b872dd146101c457806342842e0e146101e0576100f5565b806301ffc9a7146100fa57806306fdde031461012a578063081812fc14610148575b600080fd5b610114600480360381019061010f91906119e8565b61032e565b6040516101219190611a30565b60405180910390f35b610132610410565b60405161013f9190611ae4565b60405180910390f35b610162600480360381019061015d9190611b3c565b6104a2565b60405161016f9190611baa565b60405180910390f35b610192600480360381019061018d9190611bf1565b610527565b005b6101ae60048036038101906101a99190611d66565b61063f565b6040516101bb9190611dbe565b60405180910390f35b6101de60048036038101906101d99190611dd9565b610667565b005b6101fa60048036038101906101f59190611dd9565b6106c7565b005b61021660048036038101906102119190611b3c565b6106e7565b6040516102239190611baa565b60405180910390f35b61024660048036038101906102419190611e2c565b610799565b6040516102539190611dbe565b60405180910390f35b610264610851565b6040516102719190611ae4565b60405180910390f35b610294600480360381019061028f9190611e85565b6108e3565b005b6102b060048036038101906102ab9190611f66565b6108f9565b005b6102cc60048036038101906102c79190611b3c565b61095b565b6040516102d99190611ae4565b60405180910390f35b6102fc60048036038101906102f79190611fe9565b610aad565b005b61031860048036038101906103139190612045565b610b77565b6040516103259190611a30565b60405180910390f35b60007f80ac58cd000000000000000000000000000000000000000000000000000000007bffffffffffffffffffffffffffffffffffffffffffffffffffffffff1916827bffffffffffffffffffffffffffffffffffffffffffffffffffffffff191614806103f957507f5b5e139f000000000000000000000000000000000000000000000000000000007bffffffffffffffffffffffffffffffffffffffffffffffffffffffff1916827bffffffffffffffffffffffffffffffffffffffffffffffffffffffff1916145b80610409575061040882610c0b565b5b9050919050565b60606000805461041f906120b4565b80601f016020809104026020016040519081016040528092919081815260200182805461044b906120b4565b80156104985780601f1061046d57610100808354040283529160200191610498565b820191906000526020600020905b81548152906001019060200180831161047b57829003601f168201915b5050505050905090565b60006104ad82610c75565b6104ec576040517f08c379a00000000000000000000000000000000000000000000000000000000081526004016104e390612158565b60405180910390fd5b6004600083815260200190815260200160002060009054906101000a900473ffffffffffffffffffffffffffffffffffffffff169050919050565b6000610532826106e7565b90508073ffffffffffffffffffffffffffffffffffffffff168373ffffffffffffffffffffffffffffffffffffffff1614156105a3576040517f08c379a000000000000000000000000000000000000000000000000000000000815260040161059a906121ea565b60405180910390fd5b8073ffffffffffffffffffffffffffffffffffffffff166105c2610ce1565b73ffffffffffffffffffffffffffffffffffffffff1614806105f157506105f0816105eb610ce1565b610b77565b5b610630576040517f08c379a00000000000000000000000000000000000000000000000000000000081526004016106279061227c565b60405180910390fd5b61063a8383610ce9565b505050565b600060088260405161065191906122d8565b9081526020016040518091039020549050919050565b610678610672610ce1565b82610da2565b6106b7576040517f08c379a00000000000000000000000000000000000000000000000000000000081526004016106ae90612361565b60405180910390fd5b6106c2838383610e80565b505050565b6106e2838383604051806020016040528060008152506108f9565b505050565b6000806002600084815260200190815260200160002060009054906101000a900473ffffffffffffffffffffffffffffffffffffffff169050600073ffffffffffffffffffffffffffffffffffffffff168173ffffffffffffffffffffffffffffffffffffffff161415610790576040517f08c379a0000000000000000000000000000000000000000000000000000000008152600401610787906123f3565b60405180910390fd5b80915050919050565b60008073ffffffffffffffffffffffffffffffffffffffff168273ffffffffffffffffffffffffffffffffffffffff16141561080a576040517f08c379a000000000000000000000000000000000000000000000000000000000815260040161080190612485565b60405180910390fd5b600360008373ffffffffffffffffffffffffffffffffffffffff1673ffffffffffffffffffffffffffffffffffffffff168152602001908152602001600020549050919050565b606060018054610860906120b4565b80601f016020809104026020016040519081016040528092919081815260200182805461088c906120b4565b80156108d95780601f106108ae576101008083540402835291602001916108d9565b820191906000526020600020905b8154815290600101906020018083116108bc57829003601f168201915b5050505050905090565b6108f56108ee610ce1565b83836110dc565b5050565b61090a610904610ce1565b83610da2565b610949576040517f08c379a000000000000000000000000000000000000000000000000000000000815260040161094090612361565b60405180910390fd5b61095584848484611249565b50505050565b606061096682610c75565b6109a5576040517f08c379a000000000000000000000000000000000000000000000000000000000815260040161099c90612517565b60405180910390fd5b60006006600084815260200190815260200160002080546109c5906120b4565b80601f01602080910402602001604051908101604052809291908181526020018280546109f1906120b4565b8015610a3e5780601f10610a1357610100808354040283529160200191610a3e565b820191906000526020600020905b815481529060010190602001808311610a2157829003601f168201915b505050505090506000610a4f6112a5565b9050600081511415610a65578192505050610aa8565b600082511115610a9a578082604051602001610a82929190612537565b60405160208183030381529060405292505050610aa8565b610aa3846112bc565b925050505b919050565b610ab76009611363565b600781604051610ac791906122d8565b908152602001604051809103902060009054906101000a900460ff1615610aed57600080fd5b610af76009611379565b600882604051610b0791906122d8565b9081526020016040518091039020819055506000610b256009611379565b9050610b318382611387565b610b3b8183611555565b6001600783604051610b4d91906122d8565b908152602001604051809103902060006101000a81548160ff021916908315150217905550505050565b6000600560008473ffffffffffffffffffffffffffffffffffffffff1673ffffffffffffffffffffffffffffffffffffffff16815260200190815260200160002060008373ffffffffffffffffffffffffffffffffffffffff1673ffffffffffffffffffffffffffffffffffffffff16815260200190815260200160002060009054906101000a900460ff16905092915050565b60007f01ffc9a7000000000000000000000000000000000000000000000000000000007bffffffffffffffffffffffffffffffffffffffffffffffffffffffff1916827bffffffffffffffffffffffffffffffffffffffffffffffffffffffff1916149050919050565b60008073ffffffffffffffffffffffffffffffffffffffff166002600084815260200190815260200160002060009054906101000a900473ffffffffffffffffffffffffffffffffffffffff1673ffffffffffffffffffffffffffffffffffffffff1614159050919050565b600033905090565b816004600083815260200190815260200160002060006101000a81548173ffffffffffffffffffffffffffffffffffffffff021916908373ffffffffffffffffffffffffffffffffffffffff160217905550808273ffffffffffffffffffffffffffffffffffffffff16610d5c836106e7565b73ffffffffffffffffffffffffffffffffffffffff167f8c5be1e5ebec7d5bd14f71427d1e84f3dd0314c0f7b2291e5b200ac8c7c3b92560405160405180910390a45050565b6000610dad82610c75565b610dec576040517f08c379a0000000000000000000000000000000000000000000000000000000008152600401610de3906125cd565b60405180910390fd5b6000610df7836106e7565b90508073ffffffffffffffffffffffffffffffffffffffff168473ffffffffffffffffffffffffffffffffffffffff161480610e6657508373ffffffffffffffffffffffffffffffffffffffff16610e4e846104a2565b73ffffffffffffffffffffffffffffffffffffffff16145b80610e775750610e768185610b77565b5b91505092915050565b8273ffffffffffffffffffffffffffffffffffffffff16610ea0826106e7565b73ffffffffffffffffffffffffffffffffffffffff1614610ef6576040517f08c379a0000000000000000000000000000000000000000000000000000000008152600401610eed9061265f565b60405180910390fd5b600073ffffffffffffffffffffffffffffffffffffffff168273ffffffffffffffffffffffffffffffffffffffff161415610f66576040517f08c379a0000000000000000000000000000000000000000000000000000000008152600401610f5d906126f1565b60405180910390fd5b610f718383836115c9565b610f7c600082610ce9565b6001600360008573ffffffffffffffffffffffffffffffffffffffff1673ffffffffffffffffffffffffffffffffffffffff1681526020019081526020016000206000828254610fcc9190612740565b925050819055506001600360008473ffffffffffffffffffffffffffffffffffffffff1673ffffffffffffffffffffffffffffffffffffffff16815260200190815260200160002060008282546110239190612774565b92505081905550816002600083815260200190815260200160002060006101000a81548173ffffffffffffffffffffffffffffffffffffffff021916908373ffffffffffffffffffffffffffffffffffffffff160217905550808273ffffffffffffffffffffffffffffffffffffffff168473ffffffffffffffffffffffffffffffffffffffff167fddf252ad1be2c89b69c2b068fc378daa952ba7f163c4a11628f55a4df523b3ef60405160405180910390a4505050565b8173ffffffffffffffffffffffffffffffffffffffff168373ffffffffffffffffffffffffffffffffffffffff16141561114b576040517f08c379a000000000000000000000000000000000000000000000000000000000815260040161114290612816565b60405180910390fd5b80600560008573ffffffffffffffffffffffffffffffffffffffff1673ffffffffffffffffffffffffffffffffffffffff16815260200190815260200160002060008473ffffffffffffffffffffffffffffffffffffffff1673ffffffffffffffffffffffffffffffffffffffff16815260200190815260200160002060006101000a81548160ff0219169083151502179055508173ffffffffffffffffffffffffffffffffffffffff168373ffffffffffffffffffffffffffffffffffffffff167f17307eab39ab6107e8899845ad3d59bd9653f200f220920489ca2b5937696c318360405161123c9190611a30565b60405180910390a3505050565b611254848484610e80565b611260848484846115ce565b61129f576040517f08c379a0000000000000000000000000000000000000000000000000000000008152600401611296906128a8565b60405180910390fd5b50505050565b606060405180602001604052806000815250905090565b60606112c782610c75565b611306576040517f08c379a00000000000000000000000000000000000000000000000000000000081526004016112fd9061293a565b60405180910390fd5b60006113106112a5565b90506000815111611330576040518060200160405280600081525061135b565b8061133a84611765565b60405160200161134b929190612537565b6040516020818303038152906040525b915050919050565b6001816000016000828254019250508190555050565b600081600001549050919050565b600073ffffffffffffffffffffffffffffffffffffffff168273ffffffffffffffffffffffffffffffffffffffff1614156113f7576040517f08c379a00000000000000000000000000000000000000000000000000000000081526004016113ee906129a6565b60405180910390fd5b61140081610c75565b15611440576040517f08c379a000000000000000000000000000000000000000000000000000000000815260040161143790612a12565b60405180910390fd5b61144c600083836115c9565b6001600360008473ffffffffffffffffffffffffffffffffffffffff1673ffffffffffffffffffffffffffffffffffffffff168152602001908152602001600020600082825461149c9190612774565b92505081905550816002600083815260200190815260200160002060006101000a81548173ffffffffffffffffffffffffffffffffffffffff021916908373ffffffffffffffffffffffffffffffffffffffff160217905550808273ffffffffffffffffffffffffffffffffffffffff16600073ffffffffffffffffffffffffffffffffffffffff167fddf252ad1be2c89b69c2b068fc378daa952ba7f163c4a11628f55a4df523b3ef60405160405180910390a45050565b61155e82610c75565b61159d576040517f08c379a000000000000000000000000000000000000000000000000000000000815260040161159490612aa4565b60405180910390fd5b806006600084815260200190815260200160002090805190602001906115c49291906118d9565b505050565b505050565b60006115ef8473ffffffffffffffffffffffffffffffffffffffff166118c6565b15611758578373ffffffffffffffffffffffffffffffffffffffff1663150b7a02611618610ce1565b8786866040518563ffffffff1660e01b815260040161163a9493929190612b19565b602060405180830381600087803b15801561165457600080fd5b505af192505050801561168557506040513d601f19601f820116820180604052508101906116829190612b7a565b60015b611708573d80600081146116b5576040519150601f19603f3d011682016040523d82523d6000602084013e6116ba565b606091505b50600081511415611700576040517f08c379a00000000000000000000000000000000000000000000000000000000081526004016116f7906128a8565b60405180910390fd5b805181602001fd5b63150b7a0260e01b7bffffffffffffffffffffffffffffffffffffffffffffffffffffffff1916817bffffffffffffffffffffffffffffffffffffffffffffffffffffffff19161491505061175d565b600190505b949350505050565b606060008214156117ad576040518060400160405280600181526020017f300000000000000000000000000000000000000000000000000000000000000081525090506118c1565b600082905060005b600082146117df5780806117c890612ba7565b915050600a826117d89190612c1f565b91506117b5565b60008167ffffffffffffffff8111156117fb576117fa611c3b565b5b6040519080825280601f01601f19166020018201604052801561182d5781602001600182028036833780820191505090505b5090505b600085146118ba576001826118469190612740565b9150600a856118559190612c50565b60306118619190612774565b60f81b81838151811061187757611876612c81565b5b60200101907effffffffffffffffffffffffffffffffffffffffffffffffffffffffffffff1916908160001a905350600a856118b39190612c1f565b9450611831565b8093505050505b919050565b600080823b905060008111915050919050565b8280546118e5906120b4565b90600052602060002090601f016020900481019282611907576000855561194e565b82601f1061192057805160ff191683800117855561194e565b8280016001018555821561194e579182015b8281111561194d578251825591602001919060010190611932565b5b50905061195b919061195f565b5090565b5b80821115611978576000816000905550600101611960565b5090565b6000604051905090565b600080fd5b600080fd5b60007fffffffff0000000000000000000000000000000000000000000000000000000082169050919050565b6119c581611990565b81146119d057600080fd5b50565b6000813590506119e2816119bc565b92915050565b6000602082840312156119fe576119fd611986565b5b6000611a0c848285016119d3565b91505092915050565b60008115159050919050565b611a2a81611a15565b82525050565b6000602082019050611a456000830184611a21565b92915050565b600081519050919050565b600082825260208201905092915050565b60005b83811015611a85578082015181840152602081019050611a6a565b83811115611a94576000848401525b50505050565b6000601f19601f8301169050919050565b6000611ab682611a4b565b611ac08185611a56565b9350611ad0818560208601611a67565b611ad981611a9a565b840191505092915050565b60006020820190508181036000830152611afe8184611aab565b905092915050565b6000819050919050565b611b1981611b06565b8114611b2457600080fd5b50565b600081359050611b3681611b10565b92915050565b600060208284031215611b5257611b51611986565b5b6000611b6084828501611b27565b91505092915050565b600073ffffffffffffffffffffffffffffffffffffffff82169050919050565b6000611b9482611b69565b9050919050565b611ba481611b89565b82525050565b6000602082019050611bbf6000830184611b9b565b92915050565b611bce81611b89565b8114611bd957600080fd5b50565b600081359050611beb81611bc5565b92915050565b60008060408385031215611c0857611c07611986565b5b6000611c1685828601611bdc565b9250506020611c2785828601611b27565b9150509250929050565b600080fd5b600080fd5b7f4e487b7100000000000000000000000000000000000000000000000000000000600052604160045260246000fd5b611c7382611a9a565b810181811067ffffffffffffffff82111715611c9257611c91611c3b565b5b80604052505050565b6000611ca561197c565b9050611cb18282611c6a565b919050565b600067ffffffffffffffff821115611cd157611cd0611c3b565b5b611cda82611a9a565b9050602081019050919050565b82818337600083830152505050565b6000611d09611d0484611cb6565b611c9b565b905082815260208101848484011115611d2557611d24611c36565b5b611d30848285611ce7565b509392505050565b600082601f830112611d4d57611d4c611c31565b5b8135611d5d848260208601611cf6565b91505092915050565b600060208284031215611d7c57611d7b611986565b5b600082013567ffffffffffffffff811115611d9a57611d9961198b565b5b611da684828501611d38565b91505092915050565b611db881611b06565b82525050565b6000602082019050611dd36000830184611daf565b92915050565b600080600060608486031215611df257611df1611986565b5b6000611e0086828701611bdc565b9350506020611e1186828701611bdc565b9250506040611e2286828701611b27565b9150509250925092565b600060208284031215611e4257611e41611986565b5b6000611e5084828501611bdc565b91505092915050565b611e6281611a15565b8114611e6d57600080fd5b50565b600081359050611e7f81611e59565b92915050565b60008060408385031215611e9c57611e9b611986565b5b6000611eaa85828601611bdc565b9250506020611ebb85828601611e70565b9150509250929050565b600067ffffffffffffffff821115611ee057611edf611c3b565b5b611ee982611a9a565b9050602081019050919050565b6000611f09611f0484611ec5565b611c9b565b905082815260208101848484011115611f2557611f24611c36565b5b611f30848285611ce7565b509392505050565b600082601f830112611f4d57611f4c611c31565b5b8135611f5d848260208601611ef6565b91505092915050565b60008060008060808587031215611f8057611f7f611986565b5b6000611f8e87828801611bdc565b9450506020611f9f87828801611bdc565b9350506040611fb087828801611b27565b925050606085013567ffffffffffffffff811115611fd157611fd061198b565b5b611fdd87828801611f38565b91505092959194509250565b6000806040838503121561200057611fff611986565b5b600061200e85828601611bdc565b925050602083013567ffffffffffffffff81111561202f5761202e61198b565b5b61203b85828601611d38565b9150509250929050565b6000806040838503121561205c5761205b611986565b5b600061206a85828601611bdc565b925050602061207b85828601611bdc565b9150509250929050565b7f4e487b7100000000000000000000000000000000000000000000000000000000600052602260045260246000fd5b600060028204905060018216806120cc57607f821691505b602082108114156120e0576120df612085565b5b50919050565b7f4552433732313a20617070726f76656420717565727920666f72206e6f6e657860008201527f697374656e7420746f6b656e0000000000000000000000000000000000000000602082015250565b6000612142602c83611a56565b915061214d826120e6565b604082019050919050565b6000602082019050818103600083015261217181612135565b9050919050565b7f4552433732313a20617070726f76616c20746f2063757272656e74206f776e6560008201527f7200000000000000000000000000000000000000000000000000000000000000602082015250565b60006121d4602183611a56565b91506121df82612178565b604082019050919050565b60006020820190508181036000830152612203816121c7565b9050919050565b7f4552433732313a20617070726f76652063616c6c6572206973206e6f74206f7760008201527f6e6572206e6f7220617070726f76656420666f7220616c6c0000000000000000602082015250565b6000612266603883611a56565b91506122718261220a565b604082019050919050565b6000602082019050818103600083015261229581612259565b9050919050565b600081905092915050565b60006122b282611a4b565b6122bc818561229c565b93506122cc818560208601611a67565b80840191505092915050565b60006122e482846122a7565b915081905092915050565b7f4552433732313a207472616e736665722063616c6c6572206973206e6f74206f60008201527f776e6572206e6f7220617070726f766564000000000000000000000000000000602082015250565b600061234b603183611a56565b9150612356826122ef565b604082019050919050565b6000602082019050818103600083015261237a8161233e565b9050919050565b7f4552433732313a206f776e657220717565727920666f72206e6f6e657869737460008201527f656e7420746f6b656e0000000000000000000000000000000000000000000000602082015250565b60006123dd602983611a56565b91506123e882612381565b604082019050919050565b6000602082019050818103600083015261240c816123d0565b9050919050565b7f4552433732313a2062616c616e636520717565727920666f7220746865207a6560008201527f726f206164647265737300000000000000000000000000000000000000000000602082015250565b600061246f602a83611a56565b915061247a82612413565b604082019050919050565b6000602082019050818103600083015261249e81612462565b9050919050565b7f45524337323155524953746f726167653a2055524920717565727920666f722060008201527f6e6f6e6578697374656e7420746f6b656e000000000000000000000000000000602082015250565b6000612501603183611a56565b915061250c826124a5565b604082019050919050565b60006020820190508181036000830152612530816124f4565b9050919050565b600061254382856122a7565b915061254f82846122a7565b91508190509392505050565b7f4552433732313a206f70657261746f7220717565727920666f72206e6f6e657860008201527f697374656e7420746f6b656e0000000000000000000000000000000000000000602082015250565b60006125b7602c83611a56565b91506125c28261255b565b604082019050919050565b600060208201905081810360008301526125e6816125aa565b9050919050565b7f4552433732313a207472616e73666572206f6620746f6b656e2074686174206960008201527f73206e6f74206f776e0000000000000000000000000000000000000000000000602082015250565b6000612649602983611a56565b9150612654826125ed565b604082019050919050565b600060208201905081810360008301526126788161263c565b9050919050565b7f4552433732313a207472616e7366657220746f20746865207a65726f2061646460008201527f7265737300000000000000000000000000000000000000000000000000000000602082015250565b60006126db602483611a56565b91506126e68261267f565b604082019050919050565b6000602082019050818103600083015261270a816126ce565b9050919050565b7f4e487b7100000000000000000000000000000000000000000000000000000000600052601160045260246000fd5b600061274b82611b06565b915061275683611b06565b92508282101561276957612768612711565b5b828203905092915050565b600061277f82611b06565b915061278a83611b06565b9250827fffffffffffffffffffffffffffffffffffffffffffffffffffffffffffffffff038211156127bf576127be612711565b5b828201905092915050565b7f4552433732313a20617070726f766520746f2063616c6c657200000000000000600082015250565b6000612800601983611a56565b915061280b826127ca565b602082019050919050565b6000602082019050818103600083015261282f816127f3565b9050919050565b7f4552433732313a207472616e7366657220746f206e6f6e20455243373231526560008201527f63656976657220696d706c656d656e7465720000000000000000000000000000602082015250565b6000612892603283611a56565b915061289d82612836565b604082019050919050565b600060208201905081810360008301526128c181612885565b9050919050565b7f4552433732314d657461646174613a2055524920717565727920666f72206e6f60008201527f6e6578697374656e7420746f6b656e0000000000000000000000000000000000602082015250565b6000612924602f83611a56565b915061292f826128c8565b604082019050919050565b6000602082019050818103600083015261295381612917565b9050919050565b7f4552433732313a206d696e7420746f20746865207a65726f2061646472657373600082015250565b6000612990602083611a56565b915061299b8261295a565b602082019050919050565b600060208201905081810360008301526129bf81612983565b9050919050565b7f4552433732313a20746f6b656e20616c7265616479206d696e74656400000000600082015250565b60006129fc601c83611a56565b9150612a07826129c6565b602082019050919050565b60006020820190508181036000830152612a2b816129ef565b9050919050565b7f45524337323155524953746f726167653a2055524920736574206f66206e6f6e60008201527f6578697374656e7420746f6b656e000000000000000000000000000000000000602082015250565b6000612a8e602e83611a56565b9150612a9982612a32565b604082019050919050565b60006020820190508181036000830152612abd81612a81565b9050919050565b600081519050919050565b600082825260208201905092915050565b6000612aeb82612ac4565b612af58185612acf565b9350612b05818560208601611a67565b612b0e81611a9a565b840191505092915050565b6000608082019050612b2e6000830187611b9b565b612b3b6020830186611b9b565b612b486040830185611daf565b8181036060830152612b5a8184612ae0565b905095945050505050565b600081519050612b74816119bc565b92915050565b600060208284031215612b9057612b8f611986565b5b6000612b9e84828501612b65565b91505092915050565b6000612bb282611b06565b91507fffffffffffffffffffffffffffffffffffffffffffffffffffffffffffffffff821415612be557612be4612711565b5b600182019050919050565b7f4e487b7100000000000000000000000000000000000000000000000000000000600052601260045260246000fd5b6000612c2a82611b06565b9150612c3583611b06565b925082612c4557612c44612bf0565b5b828204905092915050565b6000612c5b82611b06565b9150612c6683611b06565b925082612c7657612c75612bf0565b5b828206905092915050565b7f4e487b7100000000000000000000000000000000000000000000000000000000600052603260045260246000fdfea26469706673582212202b81a914212c16f495eff55fb5cf86f0acc68322e11e9541180862c162cd975064736f6c63430008090033",
  "linkReferences": {},
  "deployedLinkReferences": {}
}