{
  "_format": "hh-sol-artifact-1",
  "contractName": "IP720",
  "sourceName": "contracts/IP720.sol",
  "abi": [
    {
      "inputs": [],
      "stateMutability": "nonpayable",
      "type": "constructor"
    },
    {
      "anonymous": false,
      "inputs": [
        {
          "indexed": true,
          "internalType": "address",
          "name": "owner",
          "type": "address"
        },
        {
          "indexed": true,
          "internalType": "address",
          "name": "approved",
          "type": "address"
        },
        {
          "indexed": true,
          "internalType": "uint256",
          "name": "tokenId",
          "type": "uint256"
        }
      ],
      "name": "Approval",
      "type": "event"
    },
    {
      "anonymous": false,
      "inputs": [
        {
          "indexed": true,
          "internalType": "address",
          "name": "owner",
          "type": "address"
        },
        {
          "indexed": true,
          "internalType": "address",
          "name": "operator",
          "type": "address"
        },
        {
          "indexed": false,
          "internalType": "bool",
          "name": "approved",
          "type": "bool"
        }
      ],
      "name": "ApprovalForAll",
      "type": "event"
    },
    {
      "anonymous": false,
      "inputs": [
        {
          "indexed": true,
          "internalType": "address",
          "name": "from",
          "type": "address"
        },
        {
          "indexed": true,
          "internalType": "address",
          "name": "to",
          "type": "address"
        },
        {
          "indexed": true,
          "internalType": "uint256",
          "name": "tokenId",
          "type": "uint256"
        }
      ],
      "name": "Transfer",
      "type": "event"
    },
    {
      "inputs": [
        {
          "internalType": "address",
          "name": "to",
          "type": "address"
        },
        {
          "internalType": "uint256",
          "name": "tokenId",
          "type": "uint256"
        }
      ],
      "name": "approve",
      "outputs": [],
      "stateMutability": "nonpayable",
      "type": "function"
    },
    {
      "inputs": [
        {
          "internalType": "address",
          "name": "owner",
          "type": "address"
        }
      ],
      "name": "balanceOf",
      "outputs": [
        {
          "internalType": "uint256",
          "name": "",
          "type": "uint256"
        }
      ],
      "stateMutability": "view",
      "type": "function"
    },
    {
      "inputs": [
        {
          "internalType": "uint256",
          "name": "tokenId",
          "type": "uint256"
        }
      ],
      "name": "getApproved",
      "outputs": [
        {
          "internalType": "address",
          "name": "",
          "type": "address"
        }
      ],
      "stateMutability": "view",
      "type": "function"
    },
    {
      "inputs": [
        {
          "internalType": "string",
          "name": "input",
          "type": "string"
        }
      ],
      "name": "getTokenId",
      "outputs": [
        {
          "internalType": "uint256",
          "name": "",
          "type": "uint256"
        }
      ],
      "stateMutability": "view",
      "type": "function"
    },
    {
      "inputs": [
        {
          "internalType": "address",
          "name": "owner",
          "type": "address"
        },
        {
          "internalType": "string",
          "name": "tokenURI",
          "type": "string"
        }
      ],
      "name": "grantItem",
      "outputs": [],
      "stateMutability": "nonpayable",
      "type": "function"
    },
    {
      "inputs": [
        {
          "internalType": "address",
          "name": "owner",
          "type": "address"
        },
        {
          "internalType": "address",
          "name": "operator",
          "type": "address"
        }
      ],
      "name": "isApprovedForAll",
      "outputs": [
        {
          "internalType": "bool",
          "name": "",
          "type": "bool"
        }
      ],
      "stateMutability": "view",
      "type": "function"
    },
    {
      "inputs": [],
      "name": "name",
      "outputs": [
        {
          "internalType": "string",
          "name": "",
          "type": "string"
        }
      ],
      "stateMutability": "view",
      "type": "function"
    },
    {
      "inputs": [
        {
          "internalType": "uint256",
          "name": "tokenId",
          "type": "uint256"
        }
      ],
      "name": "ownerOf",
      "outputs": [
        {
          "internalType": "address",
          "name": "",
          "type": "address"
        }
      ],
      "stateMutability": "view",
      "type": "function"
    },
    {
      "inputs": [
        {
          "internalType": "address",
          "name": "from",
          "type": "address"
        },
        {
          "internalType": "address",
          "name": "to",
          "type": "address"
        },
        {
          "internalType": "uint256",
          "name": "tokenId",
          "type": "uint256"
        }
      ],
      "name": "safeTransferFrom",
      "outputs": [],
      "stateMutability": "nonpayable",
      "type": "function"
    },
    {
      "inputs": [
        {
          "internalType": "address",
          "name": "from",
          "type": "address"
        },
        {
          "internalType": "address",
          "name": "to",
          "type": "address"
        },
        {
          "internalType": "uint256",
          "name": "tokenId",
          "type": "uint256"
        },
        {
          "internalType": "bytes",
          "name": "_data",
          "type": "bytes"
        }
      ],
      "name": "safeTransferFrom",
      "outputs": [],
      "stateMutability": "nonpayable",
      "type": "function"
    },
    {
      "inputs": [
        {
          "internalType": "address",
          "name": "operator",
          "type": "address"
        },
        {
          "internalType": "bool",
          "name": "approved",
          "type": "bool"
        }
      ],
      "name": "setApprovalForAll",
      "outputs": [],
      "stateMutability": "nonpayable",
      "type": "function"
    },
    {
      "inputs": [
        {
          "internalType": "bytes4",
          "name": "interfaceId",
          "type": "bytes4"
        }
      ],
      "name": "supportsInterface",
      "outputs": [
        {
          "internalType": "bool",
          "name": "",
          "type": "bool"
        }
      ],
      "stateMutability": "view",
      "type": "function"
    },
    {
      "inputs": [],
      "name": "symbol",
      "outputs": [
        {
          "internalType": "string",
          "name": "",
          "type": "string"
        }
      ],
      "stateMutability": "view",
      "type": "function"
    },
    {
      "inputs": [
        {
          "internalType": "uint256",
          "name": "tokenId",
          "type": "uint256"
        }
      ],
      "name": "tokenURI",
      "outputs": [
        {
          "internalType": "string",
          "name": "",
          "type": "string"
        }
      ],
      "stateMutability": "view",
      "type": "function"
    },
    {
      "inputs": [
        {
          "internalType": "address",
          "name": "from",
          "type": "address"
        },
        {
          "internalType": "address",
          "name": "to",
          "type": "address"
        },
        {
          "internalType": "uint256",
          "name": "tokenId",
          "type": "uint256"
        }
      ],
      "name": "transferFrom",
      "outputs": [],
      "stateMutability": "nonpayable",
      "type": "function"
    }
  ],
  "bytecode": "0x60806040523480156200001157600080fd5b506040518060400160405280601381526020017f496e74657220506c616e657461727920373230000000000000000000000000008152506040518060400160405280600581526020017f4950373230000000000000000000000000000000000000000000000000000000815250816000908051906020019062000096929190620000b8565b508060019080519060200190620000af929190620000b8565b505050620001cd565b828054620000c69062000197565b90600052602060002090601f016020900481019282620000ea576000855562000136565b82601f106200010557805160ff191683800117855562000136565b8280016001018555821562000136579182015b828111156200013557825182559160200191906001019062000118565b5b50905062000145919062000149565b5090565b5b80821115620001645760008160009055506001016200014a565b5090565b7f4e487b7100000000000000000000000000000000000000000000000000000000600052602260045260246000fd5b60006002820490506001821680620001b057607f821691505b60208210811415620001c757620001c662000168565b5b50919050565b612cdd80620001dd6000396000f3fe608060405234801561001057600080fd5b50600436106100f55760003560e01c80636352211e11610097578063b0c9182911610066578063b0c9182914610296578063b88d4fde146102b2578063c87b56dd146102ce578063e985e9c5146102fe576100f5565b80636352211e146101fc57806370a082311461022c57806395d89b411461025c578063a22cb4651461027a576100f5565b8063095ea7b3116100d3578063095ea7b3146101785780631e7663bc1461019457806323b872dd146101c457806342842e0e146101e0576100f5565b806301ffc9a7146100fa57806306fdde031461012a578063081812fc14610148575b600080fd5b610114600480360381019061010f91906119df565b61032e565b6040516101219190611a27565b60405180910390f35b610132610410565b60405161013f9190611adb565b60405180910390f35b610162600480360381019061015d9190611b33565b6104a2565b60405161016f9190611ba1565b60405180910390f35b610192600480360381019061018d9190611be8565b610527565b005b6101ae60048036038101906101a99190611d5d565b61063f565b6040516101bb9190611db5565b60405180910390f35b6101de60048036038101906101d99190611dd0565b610667565b005b6101fa60048036038101906101f59190611dd0565b6106c7565b005b61021660048036038101906102119190611b33565b6106e7565b6040516102239190611ba1565b60405180910390f35b61024660048036038101906102419190611e23565b610799565b6040516102539190611db5565b60405180910390f35b610264610851565b6040516102719190611adb565b60405180910390f35b610294600480360381019061028f9190611e7c565b6108e3565b005b6102b060048036038101906102ab9190611ebc565b6108f9565b005b6102cc60048036038101906102c79190611fb9565b6109ba565b005b6102e860048036038101906102e39190611b33565b610a1c565b6040516102f59190611adb565b60405180910390f35b6103186004803603810190610313919061203c565b610b6e565b6040516103259190611a27565b60405180910390f35b60007f80ac58cd000000000000000000000000000000000000000000000000000000007bffffffffffffffffffffffffffffffffffffffffffffffffffffffff1916827bffffffffffffffffffffffffffffffffffffffffffffffffffffffff191614806103f957507f5b5e139f000000000000000000000000000000000000000000000000000000007bffffffffffffffffffffffffffffffffffffffffffffffffffffffff1916827bffffffffffffffffffffffffffffffffffffffffffffffffffffffff1916145b80610409575061040882610c02565b5b9050919050565b60606000805461041f906120ab565b80601f016020809104026020016040519081016040528092919081815260200182805461044b906120ab565b80156104985780601f1061046d57610100808354040283529160200191610498565b820191906000526020600020905b81548152906001019060200180831161047b57829003601f168201915b5050505050905090565b60006104ad82610c6c565b6104ec576040517f08c379a00000000000000000000000000000000000000000000000000000000081526004016104e39061214f565b60405180910390fd5b6004600083815260200190815260200160002060009054906101000a900473ffffffffffffffffffffffffffffffffffffffff169050919050565b6000610532826106e7565b90508073ffffffffffffffffffffffffffffffffffffffff168373ffffffffffffffffffffffffffffffffffffffff1614156105a3576040517f08c379a000000000000000000000000000000000000000000000000000000000815260040161059a906121e1565b60405180910390fd5b8073ffffffffffffffffffffffffffffffffffffffff166105c2610cd8565b73ffffffffffffffffffffffffffffffffffffffff1614806105f157506105f0816105eb610cd8565b610b6e565b5b610630576040517f08c379a000000000000000000000000000000000000000000000000000000000815260040161062790612273565b60405180910390fd5b61063a8383610ce0565b505050565b600060088260405161065191906122cf565b9081526020016040518091039020549050919050565b610678610672610cd8565b82610d99565b6106b7576040517f08c379a00000000000000000000000000000000000000000000000000000000081526004016106ae90612358565b60405180910390fd5b6106c2838383610e77565b505050565b6106e2838383604051806020016040528060008152506109ba565b505050565b6000806002600084815260200190815260200160002060009054906101000a900473ffffffffffffffffffffffffffffffffffffffff169050600073ffffffffffffffffffffffffffffffffffffffff168173ffffffffffffffffffffffffffffffffffffffff161415610790576040517f08c379a0000000000000000000000000000000000000000000000000000000008152600401610787906123ea565b60405180910390fd5b80915050919050565b60008073ffffffffffffffffffffffffffffffffffffffff168273ffffffffffffffffffffffffffffffffffffffff16141561080a576040517f08c379a00000000000000000000000000000000000000000000000000000000081526004016108019061247c565b60405180910390fd5b600360008373ffffffffffffffffffffffffffffffffffffffff1673ffffffffffffffffffffffffffffffffffffffff168152602001908152602001600020549050919050565b606060018054610860906120ab565b80601f016020809104026020016040519081016040528092919081815260200182805461088c906120ab565b80156108d95780601f106108ae576101008083540402835291602001916108d9565b820191906000526020600020905b8154815290600101906020018083116108bc57829003601f168201915b5050505050905090565b6108f56108ee610cd8565b83836110d3565b5050565b6109036009611240565b60078160405161091391906122cf565b908152602001604051809103902060009054906101000a900460ff161561093957600080fd5b60006109456009611256565b90506109518382611264565b61095b8183611432565b8060088360405161096c91906122cf565b908152602001604051809103902081905550600160078360405161099091906122cf565b908152602001604051809103902060006101000a81548160ff021916908315150217905550505050565b6109cb6109c5610cd8565b83610d99565b610a0a576040517f08c379a0000000000000000000000000000000000000000000000000000000008152600401610a0190612358565b60405180910390fd5b610a16848484846114a6565b50505050565b6060610a2782610c6c565b610a66576040517f08c379a0000000000000000000000000000000000000000000000000000000008152600401610a5d9061250e565b60405180910390fd5b6000600660008481526020019081526020016000208054610a86906120ab565b80601f0160208091040260200160405190810160405280929190818152602001828054610ab2906120ab565b8015610aff5780601f10610ad457610100808354040283529160200191610aff565b820191906000526020600020905b815481529060010190602001808311610ae257829003601f168201915b505050505090506000610b10611502565b9050600081511415610b26578192505050610b69565b600082511115610b5b578082604051602001610b4392919061252e565b60405160208183030381529060405292505050610b69565b610b6484611519565b925050505b919050565b6000600560008473ffffffffffffffffffffffffffffffffffffffff1673ffffffffffffffffffffffffffffffffffffffff16815260200190815260200160002060008373ffffffffffffffffffffffffffffffffffffffff1673ffffffffffffffffffffffffffffffffffffffff16815260200190815260200160002060009054906101000a900460ff16905092915050565b60007f01ffc9a7000000000000000000000000000000000000000000000000000000007bffffffffffffffffffffffffffffffffffffffffffffffffffffffff1916827bffffffffffffffffffffffffffffffffffffffffffffffffffffffff1916149050919050565b60008073ffffffffffffffffffffffffffffffffffffffff166002600084815260200190815260200160002060009054906101000a900473ffffffffffffffffffffffffffffffffffffffff1673ffffffffffffffffffffffffffffffffffffffff1614159050919050565b600033905090565b816004600083815260200190815260200160002060006101000a81548173ffffffffffffffffffffffffffffffffffffffff021916908373ffffffffffffffffffffffffffffffffffffffff160217905550808273ffffffffffffffffffffffffffffffffffffffff16610d53836106e7565b73ffffffffffffffffffffffffffffffffffffffff167f8c5be1e5ebec7d5bd14f71427d1e84f3dd0314c0f7b2291e5b200ac8c7c3b92560405160405180910390a45050565b6000610da482610c6c565b610de3576040517f08c379a0000000000000000000000000000000000000000000000000000000008152600401610dda906125c4565b60405180910390fd5b6000610dee836106e7565b90508073ffffffffffffffffffffffffffffffffffffffff168473ffffffffffffffffffffffffffffffffffffffff161480610e5d57508373ffffffffffffffffffffffffffffffffffffffff16610e45846104a2565b73ffffffffffffffffffffffffffffffffffffffff16145b80610e6e5750610e6d8185610b6e565b5b91505092915050565b8273ffffffffffffffffffffffffffffffffffffffff16610e97826106e7565b73ffffffffffffffffffffffffffffffffffffffff1614610eed576040517f08c379a0000000000000000000000000000000000000000000000000000000008152600401610ee490612656565b60405180910390fd5b600073ffffffffffffffffffffffffffffffffffffffff168273ffffffffffffffffffffffffffffffffffffffff161415610f5d576040517f08c379a0000000000000000000000000000000000000000000000000000000008152600401610f54906126e8565b60405180910390fd5b610f688383836115c0565b610f73600082610ce0565b6001600360008573ffffffffffffffffffffffffffffffffffffffff1673ffffffffffffffffffffffffffffffffffffffff1681526020019081526020016000206000828254610fc39190612737565b925050819055506001600360008473ffffffffffffffffffffffffffffffffffffffff1673ffffffffffffffffffffffffffffffffffffffff168152602001908152602001600020600082825461101a919061276b565b92505081905550816002600083815260200190815260200160002060006101000a81548173ffffffffffffffffffffffffffffffffffffffff021916908373ffffffffffffffffffffffffffffffffffffffff160217905550808273ffffffffffffffffffffffffffffffffffffffff168473ffffffffffffffffffffffffffffffffffffffff167fddf252ad1be2c89b69c2b068fc378daa952ba7f163c4a11628f55a4df523b3ef60405160405180910390a4505050565b8173ffffffffffffffffffffffffffffffffffffffff168373ffffffffffffffffffffffffffffffffffffffff161415611142576040517f08c379a00000000000000000000000000000000000000000000000000000000081526004016111399061280d565b60405180910390fd5b80600560008573ffffffffffffffffffffffffffffffffffffffff1673ffffffffffffffffffffffffffffffffffffffff16815260200190815260200160002060008473ffffffffffffffffffffffffffffffffffffffff1673ffffffffffffffffffffffffffffffffffffffff16815260200190815260200160002060006101000a81548160ff0219169083151502179055508173ffffffffffffffffffffffffffffffffffffffff168373ffffffffffffffffffffffffffffffffffffffff167f17307eab39ab6107e8899845ad3d59bd9653f200f220920489ca2b5937696c31836040516112339190611a27565b60405180910390a3505050565b6001816000016000828254019250508190555050565b600081600001549050919050565b600073ffffffffffffffffffffffffffffffffffffffff168273ffffffffffffffffffffffffffffffffffffffff1614156112d4576040517f08c379a00000000000000000000000000000000000000000000000000000000081526004016112cb90612879565b60405180910390fd5b6112dd81610c6c565b1561131d576040517f08c379a0000000000000000000000000000000000000000000000000000000008152600401611314906128e5565b60405180910390fd5b611329600083836115c0565b6001600360008473ffffffffffffffffffffffffffffffffffffffff1673ffffffffffffffffffffffffffffffffffffffff1681526020019081526020016000206000828254611379919061276b565b92505081905550816002600083815260200190815260200160002060006101000a81548173ffffffffffffffffffffffffffffffffffffffff021916908373ffffffffffffffffffffffffffffffffffffffff160217905550808273ffffffffffffffffffffffffffffffffffffffff16600073ffffffffffffffffffffffffffffffffffffffff167fddf252ad1be2c89b69c2b068fc378daa952ba7f163c4a11628f55a4df523b3ef60405160405180910390a45050565b61143b82610c6c565b61147a576040517f08c379a000000000000000000000000000000000000000000000000000000000815260040161147190612977565b60405180910390fd5b806006600084815260200190815260200160002090805190602001906114a19291906118d0565b505050565b6114b1848484610e77565b6114bd848484846115c5565b6114fc576040517f08c379a00000000000000000000000000000000000000000000000000000000081526004016114f390612a09565b60405180910390fd5b50505050565b606060405180602001604052806000815250905090565b606061152482610c6c565b611563576040517f08c379a000000000000000000000000000000000000000000000000000000000815260040161155a90612a9b565b60405180910390fd5b600061156d611502565b9050600081511161158d57604051806020016040528060008152506115b8565b806115978461175c565b6040516020016115a892919061252e565b6040516020818303038152906040525b915050919050565b505050565b60006115e68473ffffffffffffffffffffffffffffffffffffffff166118bd565b1561174f578373ffffffffffffffffffffffffffffffffffffffff1663150b7a0261160f610cd8565b8786866040518563ffffffff1660e01b81526004016116319493929190612b10565b602060405180830381600087803b15801561164b57600080fd5b505af192505050801561167c57506040513d601f19601f820116820180604052508101906116799190612b71565b60015b6116ff573d80600081146116ac576040519150601f19603f3d011682016040523d82523d6000602084013e6116b1565b606091505b506000815114156116f7576040517f08c379a00000000000000000000000000000000000000000000000000000000081526004016116ee90612a09565b60405180910390fd5b805181602001fd5b63150b7a0260e01b7bffffffffffffffffffffffffffffffffffffffffffffffffffffffff1916817bffffffffffffffffffffffffffffffffffffffffffffffffffffffff191614915050611754565b600190505b949350505050565b606060008214156117a4576040518060400160405280600181526020017f300000000000000000000000000000000000000000000000000000000000000081525090506118b8565b600082905060005b600082146117d65780806117bf90612b9e565b915050600a826117cf9190612c16565b91506117ac565b60008167ffffffffffffffff8111156117f2576117f1611c32565b5b6040519080825280601f01601f1916602001820160405280156118245781602001600182028036833780820191505090505b5090505b600085146118b15760018261183d9190612737565b9150600a8561184c9190612c47565b6030611858919061276b565b60f81b81838151811061186e5761186d612c78565b5b60200101907effffffffffffffffffffffffffffffffffffffffffffffffffffffffffffff1916908160001a905350600a856118aa9190612c16565b9450611828565b8093505050505b919050565b600080823b905060008111915050919050565b8280546118dc906120ab565b90600052602060002090601f0160209004810192826118fe5760008555611945565b82601f1061191757805160ff1916838001178555611945565b82800160010185558215611945579182015b82811115611944578251825591602001919060010190611929565b5b5090506119529190611956565b5090565b5b8082111561196f576000816000905550600101611957565b5090565b6000604051905090565b600080fd5b600080fd5b60007fffffffff0000000000000000000000000000000000000000000000000000000082169050919050565b6119bc81611987565b81146119c757600080fd5b50565b6000813590506119d9816119b3565b92915050565b6000602082840312156119f5576119f461197d565b5b6000611a03848285016119ca565b91505092915050565b60008115159050919050565b611a2181611a0c565b82525050565b6000602082019050611a3c6000830184611a18565b92915050565b600081519050919050565b600082825260208201905092915050565b60005b83811015611a7c578082015181840152602081019050611a61565b83811115611a8b576000848401525b50505050565b6000601f19601f8301169050919050565b6000611aad82611a42565b611ab78185611a4d565b9350611ac7818560208601611a5e565b611ad081611a91565b840191505092915050565b60006020820190508181036000830152611af58184611aa2565b905092915050565b6000819050919050565b611b1081611afd565b8114611b1b57600080fd5b50565b600081359050611b2d81611b07565b92915050565b600060208284031215611b4957611b4861197d565b5b6000611b5784828501611b1e565b91505092915050565b600073ffffffffffffffffffffffffffffffffffffffff82169050919050565b6000611b8b82611b60565b9050919050565b611b9b81611b80565b82525050565b6000602082019050611bb66000830184611b92565b92915050565b611bc581611b80565b8114611bd057600080fd5b50565b600081359050611be281611bbc565b92915050565b60008060408385031215611bff57611bfe61197d565b5b6000611c0d85828601611bd3565b9250506020611c1e85828601611b1e565b9150509250929050565b600080fd5b600080fd5b7f4e487b7100000000000000000000000000000000000000000000000000000000600052604160045260246000fd5b611c6a82611a91565b810181811067ffffffffffffffff82111715611c8957611c88611c32565b5b80604052505050565b6000611c9c611973565b9050611ca88282611c61565b919050565b600067ffffffffffffffff821115611cc857611cc7611c32565b5b611cd182611a91565b9050602081019050919050565b82818337600083830152505050565b6000611d00611cfb84611cad565b611c92565b905082815260208101848484011115611d1c57611d1b611c2d565b5b611d27848285611cde565b509392505050565b600082601f830112611d4457611d43611c28565b5b8135611d54848260208601611ced565b91505092915050565b600060208284031215611d7357611d7261197d565b5b600082013567ffffffffffffffff811115611d9157611d90611982565b5b611d9d84828501611d2f565b91505092915050565b611daf81611afd565b82525050565b6000602082019050611dca6000830184611da6565b92915050565b600080600060608486031215611de957611de861197d565b5b6000611df786828701611bd3565b9350506020611e0886828701611bd3565b9250506040611e1986828701611b1e565b9150509250925092565b600060208284031215611e3957611e3861197d565b5b6000611e4784828501611bd3565b91505092915050565b611e5981611a0c565b8114611e6457600080fd5b50565b600081359050611e7681611e50565b92915050565b60008060408385031215611e9357611e9261197d565b5b6000611ea185828601611bd3565b9250506020611eb285828601611e67565b9150509250929050565b60008060408385031215611ed357611ed261197d565b5b6000611ee185828601611bd3565b925050602083013567ffffffffffffffff811115611f0257611f01611982565b5b611f0e85828601611d2f565b9150509250929050565b600067ffffffffffffffff821115611f3357611f32611c32565b5b611f3c82611a91565b9050602081019050919050565b6000611f5c611f5784611f18565b611c92565b905082815260208101848484011115611f7857611f77611c2d565b5b611f83848285611cde565b509392505050565b600082601f830112611fa057611f9f611c28565b5b8135611fb0848260208601611f49565b91505092915050565b60008060008060808587031215611fd357611fd261197d565b5b6000611fe187828801611bd3565b9450506020611ff287828801611bd3565b935050604061200387828801611b1e565b925050606085013567ffffffffffffffff81111561202457612023611982565b5b61203087828801611f8b565b91505092959194509250565b600080604083850312156120535761205261197d565b5b600061206185828601611bd3565b925050602061207285828601611bd3565b9150509250929050565b7f4e487b7100000000000000000000000000000000000000000000000000000000600052602260045260246000fd5b600060028204905060018216806120c357607f821691505b602082108114156120d7576120d661207c565b5b50919050565b7f4552433732313a20617070726f76656420717565727920666f72206e6f6e657860008201527f697374656e7420746f6b656e0000000000000000000000000000000000000000602082015250565b6000612139602c83611a4d565b9150612144826120dd565b604082019050919050565b600060208201905081810360008301526121688161212c565b9050919050565b7f4552433732313a20617070726f76616c20746f2063757272656e74206f776e6560008201527f7200000000000000000000000000000000000000000000000000000000000000602082015250565b60006121cb602183611a4d565b91506121d68261216f565b604082019050919050565b600060208201905081810360008301526121fa816121be565b9050919050565b7f4552433732313a20617070726f76652063616c6c6572206973206e6f74206f7760008201527f6e6572206e6f7220617070726f76656420666f7220616c6c0000000000000000602082015250565b600061225d603883611a4d565b915061226882612201565b604082019050919050565b6000602082019050818103600083015261228c81612250565b9050919050565b600081905092915050565b60006122a982611a42565b6122b38185612293565b93506122c3818560208601611a5e565b80840191505092915050565b60006122db828461229e565b915081905092915050565b7f4552433732313a207472616e736665722063616c6c6572206973206e6f74206f60008201527f776e6572206e6f7220617070726f766564000000000000000000000000000000602082015250565b6000612342603183611a4d565b915061234d826122e6565b604082019050919050565b6000602082019050818103600083015261237181612335565b9050919050565b7f4552433732313a206f776e657220717565727920666f72206e6f6e657869737460008201527f656e7420746f6b656e0000000000000000000000000000000000000000000000602082015250565b60006123d4602983611a4d565b91506123df82612378565b604082019050919050565b60006020820190508181036000830152612403816123c7565b9050919050565b7f4552433732313a2062616c616e636520717565727920666f7220746865207a6560008201527f726f206164647265737300000000000000000000000000000000000000000000602082015250565b6000612466602a83611a4d565b91506124718261240a565b604082019050919050565b6000602082019050818103600083015261249581612459565b9050919050565b7f45524337323155524953746f726167653a2055524920717565727920666f722060008201527f6e6f6e6578697374656e7420746f6b656e000000000000000000000000000000602082015250565b60006124f8603183611a4d565b91506125038261249c565b604082019050919050565b60006020820190508181036000830152612527816124eb565b9050919050565b600061253a828561229e565b9150612546828461229e565b91508190509392505050565b7f4552433732313a206f70657261746f7220717565727920666f72206e6f6e657860008201527f697374656e7420746f6b656e0000000000000000000000000000000000000000602082015250565b60006125ae602c83611a4d565b91506125b982612552565b604082019050919050565b600060208201905081810360008301526125dd816125a1565b9050919050565b7f4552433732313a207472616e73666572206f6620746f6b656e2074686174206960008201527f73206e6f74206f776e0000000000000000000000000000000000000000000000602082015250565b6000612640602983611a4d565b915061264b826125e4565b604082019050919050565b6000602082019050818103600083015261266f81612633565b9050919050565b7f4552433732313a207472616e7366657220746f20746865207a65726f2061646460008201527f7265737300000000000000000000000000000000000000000000000000000000602082015250565b60006126d2602483611a4d565b91506126dd82612676565b604082019050919050565b60006020820190508181036000830152612701816126c5565b9050919050565b7f4e487b7100000000000000000000000000000000000000000000000000000000600052601160045260246000fd5b600061274282611afd565b915061274d83611afd565b9250828210156127605761275f612708565b5b828203905092915050565b600061277682611afd565b915061278183611afd565b9250827fffffffffffffffffffffffffffffffffffffffffffffffffffffffffffffffff038211156127b6576127b5612708565b5b828201905092915050565b7f4552433732313a20617070726f766520746f2063616c6c657200000000000000600082015250565b60006127f7601983611a4d565b9150612802826127c1565b602082019050919050565b60006020820190508181036000830152612826816127ea565b9050919050565b7f4552433732313a206d696e7420746f20746865207a65726f2061646472657373600082015250565b6000612863602083611a4d565b915061286e8261282d565b602082019050919050565b6000602082019050818103600083015261289281612856565b9050919050565b7f4552433732313a20746f6b656e20616c7265616479206d696e74656400000000600082015250565b60006128cf601c83611a4d565b91506128da82612899565b602082019050919050565b600060208201905081810360008301526128fe816128c2565b9050919050565b7f45524337323155524953746f726167653a2055524920736574206f66206e6f6e60008201527f6578697374656e7420746f6b656e000000000000000000000000000000000000602082015250565b6000612961602e83611a4d565b915061296c82612905565b604082019050919050565b6000602082019050818103600083015261299081612954565b9050919050565b7f4552433732313a207472616e7366657220746f206e6f6e20455243373231526560008201527f63656976657220696d706c656d656e7465720000000000000000000000000000602082015250565b60006129f3603283611a4d565b91506129fe82612997565b604082019050919050565b60006020820190508181036000830152612a22816129e6565b9050919050565b7f4552433732314d657461646174613a2055524920717565727920666f72206e6f60008201527f6e6578697374656e7420746f6b656e0000000000000000000000000000000000602082015250565b6000612a85602f83611a4d565b9150612a9082612a29565b604082019050919050565b60006020820190508181036000830152612ab481612a78565b9050919050565b600081519050919050565b600082825260208201905092915050565b6000612ae282612abb565b612aec8185612ac6565b9350612afc818560208601611a5e565b612b0581611a91565b840191505092915050565b6000608082019050612b256000830187611b92565b612b326020830186611b92565b612b3f6040830185611da6565b8181036060830152612b518184612ad7565b905095945050505050565b600081519050612b6b816119b3565b92915050565b600060208284031215612b8757612b8661197d565b5b6000612b9584828501612b5c565b91505092915050565b6000612ba982611afd565b91507fffffffffffffffffffffffffffffffffffffffffffffffffffffffffffffffff821415612bdc57612bdb612708565b5b600182019050919050565b7f4e487b7100000000000000000000000000000000000000000000000000000000600052601260045260246000fd5b6000612c2182611afd565b9150612c2c83611afd565b925082612c3c57612c3b612be7565b5b828204905092915050565b6000612c5282611afd565b9150612c5d83611afd565b925082612c6d57612c6c612be7565b5b828206905092915050565b7f4e487b7100000000000000000000000000000000000000000000000000000000600052603260045260246000fdfea264697066735822122053d80b243c86b5cadc7b635e2909746837e71bdcfadc0335e72bb8f27c301e0164736f6c63430008090033",
  "linkReferences": {},
  "deployedLinkReferences": {}
}